{
  "_format": "hh-sol-artifact-1",
  "contractName": "MyEpicNFT",
  "sourceName": "contracts/MyEpicNFT.sol",
  "abi": [
    {
      "inputs": [],
      "stateMutability": "nonpayable",
      "type": "constructor"
    },
    {
      "anonymous": false,
      "inputs": [
        {
          "indexed": true,
          "internalType": "address",
          "name": "owner",
          "type": "address"
        },
        {
          "indexed": true,
          "internalType": "address",
          "name": "approved",
          "type": "address"
        },
        {
          "indexed": true,
          "internalType": "uint256",
          "name": "tokenId",
          "type": "uint256"
        }
      ],
      "name": "Approval",
      "type": "event"
    },
    {
      "anonymous": false,
      "inputs": [
        {
          "indexed": true,
          "internalType": "address",
          "name": "owner",
          "type": "address"
        },
        {
          "indexed": true,
          "internalType": "address",
          "name": "operator",
          "type": "address"
        },
        {
          "indexed": false,
          "internalType": "bool",
          "name": "approved",
          "type": "bool"
        }
      ],
      "name": "ApprovalForAll",
      "type": "event"
    },
    {
      "anonymous": false,
      "inputs": [
        {
          "indexed": false,
          "internalType": "address",
          "name": "sender",
          "type": "address"
        },
        {
          "indexed": false,
          "internalType": "uint256",
          "name": "tokenId",
          "type": "uint256"
        }
      ],
      "name": "NewEpicNFTMinted",
      "type": "event"
    },
    {
      "anonymous": false,
      "inputs": [
        {
          "indexed": true,
          "internalType": "address",
          "name": "from",
          "type": "address"
        },
        {
          "indexed": true,
          "internalType": "address",
          "name": "to",
          "type": "address"
        },
        {
          "indexed": true,
          "internalType": "uint256",
          "name": "tokenId",
          "type": "uint256"
        }
      ],
      "name": "Transfer",
      "type": "event"
    },
    {
      "inputs": [
        {
          "internalType": "address",
          "name": "to",
          "type": "address"
        },
        {
          "internalType": "uint256",
          "name": "tokenId",
          "type": "uint256"
        }
      ],
      "name": "approve",
      "outputs": [],
      "stateMutability": "nonpayable",
      "type": "function"
    },
    {
      "inputs": [
        {
          "internalType": "address",
          "name": "owner",
          "type": "address"
        }
      ],
      "name": "balanceOf",
      "outputs": [
        {
          "internalType": "uint256",
          "name": "",
          "type": "uint256"
        }
      ],
      "stateMutability": "view",
      "type": "function"
    },
    {
      "inputs": [
        {
          "internalType": "uint256",
          "name": "tokenId",
          "type": "uint256"
        }
      ],
      "name": "getApproved",
      "outputs": [
        {
          "internalType": "address",
          "name": "",
          "type": "address"
        }
      ],
      "stateMutability": "view",
      "type": "function"
    },
    {
      "inputs": [],
      "name": "getTotalMintCount",
      "outputs": [
        {
          "internalType": "uint256",
          "name": "",
          "type": "uint256"
        }
      ],
      "stateMutability": "view",
      "type": "function"
    },
    {
      "inputs": [],
      "name": "getTotalNFTsMintedSoFar",
      "outputs": [
        {
          "internalType": "uint256",
          "name": "",
          "type": "uint256"
        }
      ],
      "stateMutability": "view",
      "type": "function"
    },
    {
      "inputs": [
        {
          "internalType": "address",
          "name": "owner",
          "type": "address"
        },
        {
          "internalType": "address",
          "name": "operator",
          "type": "address"
        }
      ],
      "name": "isApprovedForAll",
      "outputs": [
        {
          "internalType": "bool",
          "name": "",
          "type": "bool"
        }
      ],
      "stateMutability": "view",
      "type": "function"
    },
    {
      "inputs": [],
      "name": "makeAnEpicNFT",
      "outputs": [],
      "stateMutability": "nonpayable",
      "type": "function"
    },
    {
      "inputs": [],
      "name": "name",
      "outputs": [
        {
          "internalType": "string",
          "name": "",
          "type": "string"
        }
      ],
      "stateMutability": "view",
      "type": "function"
    },
    {
      "inputs": [
        {
          "internalType": "uint256",
          "name": "tokenId",
          "type": "uint256"
        }
      ],
      "name": "ownerOf",
      "outputs": [
        {
          "internalType": "address",
          "name": "",
          "type": "address"
        }
      ],
      "stateMutability": "view",
      "type": "function"
    },
    {
      "inputs": [
        {
          "internalType": "uint256",
          "name": "tokenId",
          "type": "uint256"
        }
      ],
      "name": "pickRandomColor",
      "outputs": [
        {
          "internalType": "string",
          "name": "",
          "type": "string"
        }
      ],
      "stateMutability": "view",
      "type": "function"
    },
    {
      "inputs": [
        {
          "internalType": "uint256",
          "name": "tokenId",
          "type": "uint256"
        }
      ],
      "name": "pickRandomFirstWord",
      "outputs": [
        {
          "internalType": "string",
          "name": "",
          "type": "string"
        }
      ],
      "stateMutability": "view",
      "type": "function"
    },
    {
      "inputs": [
        {
          "internalType": "uint256",
          "name": "tokenId",
          "type": "uint256"
        }
      ],
      "name": "pickRandomSecondWord",
      "outputs": [
        {
          "internalType": "string",
          "name": "",
          "type": "string"
        }
      ],
      "stateMutability": "view",
      "type": "function"
    },
    {
      "inputs": [
        {
          "internalType": "uint256",
          "name": "tokenId",
          "type": "uint256"
        }
      ],
      "name": "pickRandomThirdWord",
      "outputs": [
        {
          "internalType": "string",
          "name": "",
          "type": "string"
        }
      ],
      "stateMutability": "view",
      "type": "function"
    },
    {
      "inputs": [
        {
          "internalType": "address",
          "name": "from",
          "type": "address"
        },
        {
          "internalType": "address",
          "name": "to",
          "type": "address"
        },
        {
          "internalType": "uint256",
          "name": "tokenId",
          "type": "uint256"
        }
      ],
      "name": "safeTransferFrom",
      "outputs": [],
      "stateMutability": "nonpayable",
      "type": "function"
    },
    {
      "inputs": [
        {
          "internalType": "address",
          "name": "from",
          "type": "address"
        },
        {
          "internalType": "address",
          "name": "to",
          "type": "address"
        },
        {
          "internalType": "uint256",
          "name": "tokenId",
          "type": "uint256"
        },
        {
          "internalType": "bytes",
          "name": "_data",
          "type": "bytes"
        }
      ],
      "name": "safeTransferFrom",
      "outputs": [],
      "stateMutability": "nonpayable",
      "type": "function"
    },
    {
      "inputs": [
        {
          "internalType": "address",
          "name": "operator",
          "type": "address"
        },
        {
          "internalType": "bool",
          "name": "approved",
          "type": "bool"
        }
      ],
      "name": "setApprovalForAll",
      "outputs": [],
      "stateMutability": "nonpayable",
      "type": "function"
    },
    {
      "inputs": [
        {
          "internalType": "bytes4",
          "name": "interfaceId",
          "type": "bytes4"
        }
      ],
      "name": "supportsInterface",
      "outputs": [
        {
          "internalType": "bool",
          "name": "",
          "type": "bool"
        }
      ],
      "stateMutability": "view",
      "type": "function"
    },
    {
      "inputs": [],
      "name": "symbol",
      "outputs": [
        {
          "internalType": "string",
          "name": "",
          "type": "string"
        }
      ],
      "stateMutability": "view",
      "type": "function"
    },
    {
      "inputs": [
        {
          "internalType": "uint256",
          "name": "tokenId",
          "type": "uint256"
        }
      ],
      "name": "tokenURI",
      "outputs": [
        {
          "internalType": "string",
          "name": "",
          "type": "string"
        }
      ],
      "stateMutability": "view",
      "type": "function"
    },
    {
      "inputs": [],
      "name": "totalMinted",
      "outputs": [
        {
          "internalType": "uint256",
          "name": "",
          "type": "uint256"
        }
      ],
      "stateMutability": "view",
      "type": "function"
    },
    {
      "inputs": [
        {
          "internalType": "address",
          "name": "from",
          "type": "address"
        },
        {
          "internalType": "address",
          "name": "to",
          "type": "address"
        },
        {
          "internalType": "uint256",
          "name": "tokenId",
          "type": "uint256"
        }
      ],
      "name": "transferFrom",
      "outputs": [],
      "stateMutability": "nonpayable",
      "type": "function"
    }
  ],
  "bytecode": "0x60806040526000600855603260095560405180610100016040528060d3815260200162004eb060d39139600a90805190602001906200004092919062000f23565b5060405180608001604052806056815260200162004f8360569139600b90805190602001906200007292919062000f23565b50604051806101e001604052806040518060400160405280600381526020017f536972000000000000000000000000000000000000000000000000000000000081525081526020016040518060400160405280600581526020017f4d6127616d00000000000000000000000000000000000000000000000000000081525081526020016040518060400160405280600381526020017f4d722e000000000000000000000000000000000000000000000000000000000081525081526020016040518060400160405280600481526020017f4d72732e0000000000000000000000000000000000000000000000000000000081525081526020016040518060400160405280600481526020017f4d6973730000000000000000000000000000000000000000000000000000000081525081526020016040518060400160405280600481526020017f4c6164790000000000000000000000000000000000000000000000000000000081525081526020016040518060400160405280600481526020017f4c6f72640000000000000000000000000000000000000000000000000000000081525081526020016040518060400160405280600781526020017f4361707461696e0000000000000000000000000000000000000000000000000081525081526020016040518060400160405280600681526020017f466174686572000000000000000000000000000000000000000000000000000081525081526020016040518060400160405280600681526020017f4d6f74686572000000000000000000000000000000000000000000000000000081525081526020016040518060400160405280600681526020017f446f63746f72000000000000000000000000000000000000000000000000000081525081526020016040518060400160405280600481526020017f4561726c0000000000000000000000000000000000000000000000000000000081525081526020016040518060400160405280600481526020017f536972650000000000000000000000000000000000000000000000000000000081525081526020016040518060400160405280600781526020017f457371756972650000000000000000000000000000000000000000000000000081525081526020016040518060400160405280600981526020017f50726f666573736f720000000000000000000000000000000000000000000000815250815250600c90600f6200040492919062000fb4565b50604051806101e001604052806040518060400160405280600981526020017f496d706f7274616e74000000000000000000000000000000000000000000000081525081526020016040518060400160405280600781526020017f506f70756c61720000000000000000000000000000000000000000000000000081525081526020016040518060400160405280600581526020017f426173696300000000000000000000000000000000000000000000000000000081525081526020016040518060400160405280600a81526020017f486973746f726963616c0000000000000000000000000000000000000000000081525081526020016040518060400160405280600681526020017f55736566756c000000000000000000000000000000000000000000000000000081525081526020016040518060400160405280600781526020017f4865616c7468790000000000000000000000000000000000000000000000000081525081526020016040518060400160405280600b81526020017f5369676e69666963616e7400000000000000000000000000000000000000000081525081526020016040518060400160405280600481526020017f526172650000000000000000000000000000000000000000000000000000000081525081526020016040518060400160405280600881526020017f52656c6576616e7400000000000000000000000000000000000000000000000081525081526020016040518060400160405280600881526020017f4472616d6174696300000000000000000000000000000000000000000000000081525081526020016040518060400160405280600881526020017f506f77657266756c00000000000000000000000000000000000000000000000081525081526020016040518060400160405280600781526020017f556e757375616c0000000000000000000000000000000000000000000000000081525081526020016040518060400160405280600681526020017f426f72696e67000000000000000000000000000000000000000000000000000081525081526020016040518060400160405280600581526020017f4c75636b7900000000000000000000000000000000000000000000000000000081525081526020016040518060400160405280600881526020017f5465727269626c65000000000000000000000000000000000000000000000000815250815250600d90600f6200079692919062000fb4565b506040518061024001604052806040518060400160405280600881526020017f417567757374757300000000000000000000000000000000000000000000000081525081526020016040518060400160405280600881526020017f546962657269757300000000000000000000000000000000000000000000000081525081526020016040518060400160405280600881526020017f43616c6967756c6100000000000000000000000000000000000000000000000081525081526020016040518060400160405280600881526020017f436c61756469757300000000000000000000000000000000000000000000000081525081526020016040518060400160405280600481526020017f4e65726f0000000000000000000000000000000000000000000000000000000081525081526020016040518060400160405280600581526020017f47616c626100000000000000000000000000000000000000000000000000000081525081526020016040518060400160405280600481526020017f4f74686f0000000000000000000000000000000000000000000000000000000081525081526020016040518060400160405280600981526020017f566974656c6c697573000000000000000000000000000000000000000000000081525081526020016040518060400160405280600981526020017f56657370617369616e000000000000000000000000000000000000000000000081525081526020016040518060400160405280600581526020017f546974757300000000000000000000000000000000000000000000000000000081525081526020016040518060400160405280600881526020017f446f6d697469616e00000000000000000000000000000000000000000000000081525081526020016040518060400160405280600581526020017f4e6572766100000000000000000000000000000000000000000000000000000081525081526020016040518060400160405280600681526020017f5472616a616e000000000000000000000000000000000000000000000000000081525081526020016040518060400160405280600781526020017f4861647269616e0000000000000000000000000000000000000000000000000081525081526020016040518060400160405280600e81526020017f416e746f6e696e7573205069757300000000000000000000000000000000000081525081526020016040518060400160405280600f81526020017f4d617263757320417572656c697573000000000000000000000000000000000081525081526020016040518060400160405280600c81526020017f4c7563697573205665727573000000000000000000000000000000000000000081525081526020016040518060400160405280600881526020017f436f6d6d6f647573000000000000000000000000000000000000000000000000815250815250600e90601262000bd99291906200101b565b506040518060c001604052806040518060400160405280600781526020017f233636633261350000000000000000000000000000000000000000000000000081525081526020016040518060400160405280600781526020017f236663386436320000000000000000000000000000000000000000000000000081525081526020016040518060400160405280600781526020017f233864613063620000000000000000000000000000000000000000000000000081525081526020016040518060400160405280600781526020017f236537386163330000000000000000000000000000000000000000000000000081525081526020016040518060400160405280600781526020017f236136643835340000000000000000000000000000000000000000000000000081525081526020016040518060400160405280600781526020017f2366666439326600000000000000000000000000000000000000000000000000815250815250600f90600662000d5792919062001082565b5034801562000d6557600080fd5b506040518060400160405280600981526020017f4a6f6e6e69654e465400000000000000000000000000000000000000000000008152506040518060400160405280600881526020017f47454f5155414e54000000000000000000000000000000000000000000000000815250816000908051906020019062000dea92919062000f23565b50806001908051906020019062000e0392919062000f23565b50505062000e516040518060400160405280601e81526020017f54686973206973206d79204e465420636f6e74726163742e20576f616821000081525062000e5760201b6200148c1760201c565b620012a3565b62000ef78160405160240162000e6e9190620011b7565b6040516020818303038152906040527f41304fac000000000000000000000000000000000000000000000000000000007bffffffffffffffffffffffffffffffffffffffffffffffffffffffff19166020820180517bffffffffffffffffffffffffffffffffffffffffffffffffffffffff838183161783525050505062000efa60201b60201c565b50565b60008151905060006a636f6e736f6c652e6c6f679050602083016000808483855afa5050505050565b82805462000f31906200122d565b90600052602060002090601f01602090048101928262000f55576000855562000fa1565b82601f1062000f7057805160ff191683800117855562000fa1565b8280016001018555821562000fa1579182015b8281111562000fa057825182559160200191906001019062000f83565b5b50905062000fb09190620010e9565b5090565b82805482825590600052602060002090810192821562001008579160200282015b828111156200100757825182908051906020019062000ff692919062000f23565b509160200191906001019062000fd5565b5b50905062001017919062001108565b5090565b8280548282559060005260206000209081019282156200106f579160200282015b828111156200106e5782518290805190602001906200105d92919062000f23565b50916020019190600101906200103c565b5b5090506200107e919062001108565b5090565b828054828255906000526020600020908101928215620010d6579160200282015b82811115620010d5578251829080519060200190620010c492919062000f23565b5091602001919060010190620010a3565b5b509050620010e5919062001108565b5090565b5b8082111562001104576000816000905550600101620010ea565b5090565b5b808211156200112c576000818162001122919062001130565b5060010162001109565b5090565b5080546200113e906200122d565b6000825580601f1062001152575062001173565b601f016020900490600052602060002090810190620011729190620010e9565b5b50565b60006200118382620011db565b6200118f8185620011e6565b9350620011a1818560208601620011f7565b620011ac8162001292565b840191505092915050565b60006020820190508181036000830152620011d3818462001176565b905092915050565b600081519050919050565b600082825260208201905092915050565b60005b8381101562001217578082015181840152602081019050620011fa565b8381111562001227576000848401525b50505050565b600060028204905060018216806200124657607f821691505b602082108114156200125d576200125c62001263565b5b50919050565b7f4e487b7100000000000000000000000000000000000000000000000000000000600052602260045260246000fd5b6000601f19601f8301169050919050565b613bfd80620012b36000396000f3fe608060405234801561001057600080fd5b50600436106101375760003560e01c806370a08231116100b8578063b187301f1161007c578063b187301f14610362578063b88d4fde14610392578063c575757a146103ae578063c87b56dd146103de578063de9d132f1461040e578063e985e9c51461041857610137565b806370a08231146102bc57806395d89b41146102ec5780639b8ab6911461030a578063a22cb46514610328578063a2309ff81461034457610137565b806323b872dd116100ff57806323b872dd146101f45780632de38d681461021057806342842e0e14610240578063514dc8c61461025c5780636352211e1461028c57610137565b806301ffc9a71461013c578063060475901461016c57806306fdde031461018a578063081812fc146101a8578063095ea7b3146101d8575b600080fd5b6101566004803603810190610151919061271f565b610448565b6040516101639190613453565b60405180910390f35b61017461052a565b60405161018191906136ee565b60405180910390f35b61019261053b565b60405161019f919061346e565b60405180910390f35b6101c260048036038101906101bd9190612771565b6105cd565b6040516101cf91906133c3565b60405180910390f35b6101f260048036038101906101ed91906126e3565b610652565b005b61020e600480360381019061020991906125dd565b61076a565b005b61022a60048036038101906102259190612771565b6107ca565b604051610237919061346e565b60405180910390f35b61025a600480360381019061025591906125dd565b6108e8565b005b61027660048036038101906102719190612771565b610908565b604051610283919061346e565b60405180910390f35b6102a660048036038101906102a19190612771565b610a26565b6040516102b391906133c3565b60405180910390f35b6102d660048036038101906102d19190612578565b610ad8565b6040516102e391906136ee565b60405180910390f35b6102f4610b90565b604051610301919061346e565b60405180910390f35b610312610c22565b60405161031f91906136ee565b60405180910390f35b610342600480360381019061033d91906126a7565b610c2c565b005b61034c610dad565b60405161035991906136ee565b60405180910390f35b61037c60048036038101906103779190612771565b610db3565b604051610389919061346e565b60405180910390f35b6103ac60048036038101906103a7919061262c565b610ed1565b005b6103c860048036038101906103c39190612771565b610f33565b6040516103d5919061346e565b60405180910390f35b6103f860048036038101906103f39190612771565b611051565b604051610405919061346e565b60405180910390f35b6104166111a3565b005b610432600480360381019061042d91906125a1565b6113f8565b60405161043f9190613453565b60405180910390f35b60007f80ac58cd000000000000000000000000000000000000000000000000000000007bffffffffffffffffffffffffffffffffffffffffffffffffffffffff1916827bffffffffffffffffffffffffffffffffffffffffffffffffffffffff1916148061051357507f5b5e139f000000000000000000000000000000000000000000000000000000007bffffffffffffffffffffffffffffffffffffffffffffffffffffffff1916827bffffffffffffffffffffffffffffffffffffffffffffffffffffffff1916145b80610523575061052282611525565b5b9050919050565b6000610536600761158f565b905090565b60606000805461054a9061398d565b80601f01602080910402602001604051908101604052809291908181526020018280546105769061398d565b80156105c35780601f10610598576101008083540402835291602001916105c3565b820191906000526020600020905b8154815290600101906020018083116105a657829003601f168201915b5050505050905090565b60006105d88261159d565b610617576040517f08c379a000000000000000000000000000000000000000000000000000000000815260040161060e9061364e565b60405180910390fd5b6004600083815260200190815260200160002060009054906101000a900473ffffffffffffffffffffffffffffffffffffffff169050919050565b600061065d82610a26565b90508073ffffffffffffffffffffffffffffffffffffffff168373ffffffffffffffffffffffffffffffffffffffff1614156106ce576040517f08c379a00000000000000000000000000000000000000000000000000000000081526004016106c5906136ae565b60405180910390fd5b8073ffffffffffffffffffffffffffffffffffffffff166106ed611609565b73ffffffffffffffffffffffffffffffffffffffff16148061071c575061071b81610716611609565b6113f8565b5b61075b576040517f08c379a00000000000000000000000000000000000000000000000000000000081526004016107529061356e565b60405180910390fd5b6107658383611611565b505050565b61077b610775611609565b826116ca565b6107ba576040517f08c379a00000000000000000000000000000000000000000000000000000000081526004016107b1906136ce565b60405180910390fd5b6107c58383836117a8565b505050565b606060006107fe6107da84611a04565b6040516020016107ea919061335d565b604051602081830303815290604052611bb1565b9050600c80549050816108119190613a08565b9050600c818154811061084d577f4e487b7100000000000000000000000000000000000000000000000000000000600052603260045260246000fd5b9060005260206000200180546108629061398d565b80601f016020809104026020016040519081016040528092919081815260200182805461088e9061398d565b80156108db5780601f106108b0576101008083540402835291602001916108db565b820191906000526020600020905b8154815290600101906020018083116108be57829003601f168201915b5050505050915050919050565b61090383838360405180602001604052806000815250610ed1565b505050565b6060600061093c61091884611a04565b60405160200161092891906133a1565b604051602081830303815290604052611bb1565b9050600f805490508161094f9190613a08565b9050600f818154811061098b577f4e487b7100000000000000000000000000000000000000000000000000000000600052603260045260246000fd5b9060005260206000200180546109a09061398d565b80601f01602080910402602001604051908101604052809291908181526020018280546109cc9061398d565b8015610a195780601f106109ee57610100808354040283529160200191610a19565b820191906000526020600020905b8154815290600101906020018083116109fc57829003601f168201915b5050505050915050919050565b6000806002600084815260200190815260200160002060009054906101000a900473ffffffffffffffffffffffffffffffffffffffff169050600073ffffffffffffffffffffffffffffffffffffffff168173ffffffffffffffffffffffffffffffffffffffff161415610acf576040517f08c379a0000000000000000000000000000000000000000000000000000000008152600401610ac6906135ae565b60405180910390fd5b80915050919050565b60008073ffffffffffffffffffffffffffffffffffffffff168273ffffffffffffffffffffffffffffffffffffffff161415610b49576040517f08c379a0000000000000000000000000000000000000000000000000000000008152600401610b409061358e565b60405180910390fd5b600360008373ffffffffffffffffffffffffffffffffffffffff1673ffffffffffffffffffffffffffffffffffffffff168152602001908152602001600020549050919050565b606060018054610b9f9061398d565b80601f0160208091040260200160405190810160405280929190818152602001828054610bcb9061398d565b8015610c185780601f10610bed57610100808354040283529160200191610c18565b820191906000526020600020905b815481529060010190602001808311610bfb57829003601f168201915b5050505050905090565b6000600954905090565b610c34611609565b73ffffffffffffffffffffffffffffffffffffffff168273ffffffffffffffffffffffffffffffffffffffff161415610ca2576040517f08c379a0000000000000000000000000000000000000000000000000000000008152600401610c999061352e565b60405180910390fd5b8060056000610caf611609565b73ffffffffffffffffffffffffffffffffffffffff1673ffffffffffffffffffffffffffffffffffffffff16815260200190815260200160002060008473ffffffffffffffffffffffffffffffffffffffff1673ffffffffffffffffffffffffffffffffffffffff16815260200190815260200160002060006101000a81548160ff0219169083151502179055508173ffffffffffffffffffffffffffffffffffffffff16610d5c611609565b73ffffffffffffffffffffffffffffffffffffffff167f17307eab39ab6107e8899845ad3d59bd9653f200f220920489ca2b5937696c3183604051610da19190613453565b60405180910390a35050565b60085481565b60606000610de7610dc384611a04565b604051602001610dd391906132f6565b604051602081830303815290604052611bb1565b9050600d8054905081610dfa9190613a08565b9050600d8181548110610e36577f4e487b7100000000000000000000000000000000000000000000000000000000600052603260045260246000fd5b906000526020600020018054610e4b9061398d565b80601f0160208091040260200160405190810160405280929190818152602001828054610e779061398d565b8015610ec45780601f10610e9957610100808354040283529160200191610ec4565b820191906000526020600020905b815481529060010190602001808311610ea757829003601f168201915b5050505050915050919050565b610ee2610edc611609565b836116ca565b610f21576040517f08c379a0000000000000000000000000000000000000000000000000000000008152600401610f18906136ce565b60405180910390fd5b610f2d84848484611be4565b50505050565b60606000610f67610f4384611a04565b604051602001610f5391906132d4565b604051602081830303815290604052611bb1565b9050600e8054905081610f7a9190613a08565b9050600e8181548110610fb6577f4e487b7100000000000000000000000000000000000000000000000000000000600052603260045260246000fd5b906000526020600020018054610fcb9061398d565b80601f0160208091040260200160405190810160405280929190818152602001828054610ff79061398d565b80156110445780601f1061101957610100808354040283529160200191611044565b820191906000526020600020905b81548152906001019060200180831161102757829003601f168201915b5050505050915050919050565b606061105c8261159d565b61109b576040517f08c379a00000000000000000000000000000000000000000000000000000000081526004016110929061362e565b60405180910390fd5b60006006600084815260200190815260200160002080546110bb9061398d565b80601f01602080910402602001604051908101604052809291908181526020018280546110e79061398d565b80156111345780601f1061110957610100808354040283529160200191611134565b820191906000526020600020905b81548152906001019060200180831161111757829003601f168201915b505050505090506000611145611c40565b905060008151141561115b57819250505061119e565b600082511115611190578082604051602001611178929190613220565b6040516020818303038152906040529250505061119e565b61119984611c57565b925050505b919050565b600954600854106111e9576040517f08c379a00000000000000000000000000000000000000000000000000000000081526004016111e0906135ee565b60405180910390fd5b60016008546111f891906137c2565b600881905550600061120a600761158f565b90506000611217826107ca565b9050600061122483610db3565b9050600061123184610f33565b9050600083838360405160200161124a93929190613244565b6040516020818303038152906040529050600061126686610908565b90506000600a82600b85604051602001611283949392919061328b565b604051602081830303815290604052905060006112c8846112a384611cfe565b6040516020016112b4929190613318565b604051602081830303815290604052611cfe565b90506000816040516020016112dd919061337f565b604051602081830303815290604052905061132c6040518060400160405280601581526020017f0a2d2d2d2d2d2d2d2d2d2d2d2d2d2d2d2d2d2d2d2d000000000000000000000081525061148c565b6113358161148c565b6113736040518060400160405280601581526020017f2d2d2d2d2d2d2d2d2d2d2d2d2d2d2d2d2d2d2d2d0a000000000000000000000081525061148c565b61137d338a611ebc565b6113878982611eda565b6113916007611f4e565b6113b4604051806060016040528060258152602001613b63602591398a33611f64565b7febb98688741ffa4c7589bf325de30cf7becb63de567842e1ccdb6cb949fdc82c338a6040516113e592919061342a565b60405180910390a1505050505050505050565b6000600560008473ffffffffffffffffffffffffffffffffffffffff1673ffffffffffffffffffffffffffffffffffffffff16815260200190815260200160002060008373ffffffffffffffffffffffffffffffffffffffff1673ffffffffffffffffffffffffffffffffffffffff16815260200190815260200160002060009054906101000a900460ff16905092915050565b611522816040516024016114a0919061346e565b6040516020818303038152906040527f41304fac000000000000000000000000000000000000000000000000000000007bffffffffffffffffffffffffffffffffffffffffffffffffffffffff19166020820180517bffffffffffffffffffffffffffffffffffffffffffffffffffffffff8381831617835250505050612003565b50565b60007f01ffc9a7000000000000000000000000000000000000000000000000000000007bffffffffffffffffffffffffffffffffffffffffffffffffffffffff1916827bffffffffffffffffffffffffffffffffffffffffffffffffffffffff1916149050919050565b600081600001549050919050565b60008073ffffffffffffffffffffffffffffffffffffffff166002600084815260200190815260200160002060009054906101000a900473ffffffffffffffffffffffffffffffffffffffff1673ffffffffffffffffffffffffffffffffffffffff1614159050919050565b600033905090565b816004600083815260200190815260200160002060006101000a81548173ffffffffffffffffffffffffffffffffffffffff021916908373ffffffffffffffffffffffffffffffffffffffff160217905550808273ffffffffffffffffffffffffffffffffffffffff1661168483610a26565b73ffffffffffffffffffffffffffffffffffffffff167f8c5be1e5ebec7d5bd14f71427d1e84f3dd0314c0f7b2291e5b200ac8c7c3b92560405160405180910390a45050565b60006116d58261159d565b611714576040517f08c379a000000000000000000000000000000000000000000000000000000000815260040161170b9061354e565b60405180910390fd5b600061171f83610a26565b90508073ffffffffffffffffffffffffffffffffffffffff168473ffffffffffffffffffffffffffffffffffffffff16148061178e57508373ffffffffffffffffffffffffffffffffffffffff16611776846105cd565b73ffffffffffffffffffffffffffffffffffffffff16145b8061179f575061179e81856113f8565b5b91505092915050565b8273ffffffffffffffffffffffffffffffffffffffff166117c882610a26565b73ffffffffffffffffffffffffffffffffffffffff161461181e576040517f08c379a00000000000000000000000000000000000000000000000000000000081526004016118159061366e565b60405180910390fd5b600073ffffffffffffffffffffffffffffffffffffffff168273ffffffffffffffffffffffffffffffffffffffff16141561188e576040517f08c379a00000000000000000000000000000000000000000000000000000000081526004016118859061350e565b60405180910390fd5b61189983838361202c565b6118a4600082611611565b6001600360008573ffffffffffffffffffffffffffffffffffffffff1673ffffffffffffffffffffffffffffffffffffffff16815260200190815260200160002060008282546118f491906138a3565b925050819055506001600360008473ffffffffffffffffffffffffffffffffffffffff1673ffffffffffffffffffffffffffffffffffffffff168152602001908152602001600020600082825461194b91906137c2565b92505081905550816002600083815260200190815260200160002060006101000a81548173ffffffffffffffffffffffffffffffffffffffff021916908373ffffffffffffffffffffffffffffffffffffffff160217905550808273ffffffffffffffffffffffffffffffffffffffff168473ffffffffffffffffffffffffffffffffffffffff167fddf252ad1be2c89b69c2b068fc378daa952ba7f163c4a11628f55a4df523b3ef60405160405180910390a4505050565b60606000821415611a4c576040518060400160405280600181526020017f30000000000000000000000000000000000000000000000000000000000000008152509050611bac565b600082905060005b60008214611a7e578080611a67906139bf565b915050600a82611a779190613818565b9150611a54565b60008167ffffffffffffffff811115611ac0577f4e487b7100000000000000000000000000000000000000000000000000000000600052604160045260246000fd5b6040519080825280601f01601f191660200182016040528015611af25781602001600182028036833780820191505090505b5090505b60008514611ba557600182611b0b91906138a3565b9150600a85611b1a9190613a08565b6030611b2691906137c2565b60f81b818381518110611b62577f4e487b7100000000000000000000000000000000000000000000000000000000600052603260045260246000fd5b60200101907effffffffffffffffffffffffffffffffffffffffffffffffffffffffffffff1916908160001a905350600a85611b9e9190613818565b9450611af6565b8093505050505b919050565b600081604051602001611bc49190613209565b6040516020818303038152906040528051906020012060001c9050919050565b611bef8484846117a8565b611bfb84848484612031565b611c3a576040517f08c379a0000000000000000000000000000000000000000000000000000000008152600401611c31906134ce565b60405180910390fd5b50505050565b606060405180602001604052806000815250905090565b6060611c628261159d565b611ca1576040517f08c379a0000000000000000000000000000000000000000000000000000000008152600401611c989061368e565b60405180910390fd5b6000611cab611c40565b90506000815111611ccb5760405180602001604052806000815250611cf6565b80611cd584611a04565b604051602001611ce6929190613220565b6040516020818303038152906040525b915050919050565b60606000825190506000811415611d275760405180602001604052806000815250915050611eb7565b60006003600283611d3891906137c2565b611d429190613818565b6004611d4e9190613849565b90506000602082611d5f91906137c2565b67ffffffffffffffff811115611d9e577f4e487b7100000000000000000000000000000000000000000000000000000000600052604160045260246000fd5b6040519080825280601f01601f191660200182016040528015611dd05781602001600182028036833780820191505090505b5090506000604051806060016040528060408152602001613b88604091399050600181016020830160005b86811015611e745760038101905062ffffff818a015116603f8160121c168401518060081b905060ff603f83600c1c1686015116810190508060081b905060ff603f8360061c1686015116810190508060081b905060ff603f831686015116810190508060e01b90508084526004840193505050611dfb565b506003860660018114611e8e5760028114611e9e57611ea9565b613d3d60f01b6002830352611ea9565b603d60f81b60018303525b508484525050819450505050505b919050565b611ed68282604051806020016040528060008152506121c8565b5050565b611ee38261159d565b611f22576040517f08c379a0000000000000000000000000000000000000000000000000000000008152600401611f19906135ce565b60405180910390fd5b80600660008481526020019081526020016000209080519060200190611f49929190612404565b505050565b6001816000016000828254019250508190555050565b611ffe838383604051602401611f7c93929190613490565b6040516020818303038152906040527fe3849f79000000000000000000000000000000000000000000000000000000007bffffffffffffffffffffffffffffffffffffffffffffffffffffffff19166020820180517bffffffffffffffffffffffffffffffffffffffffffffffffffffffff8381831617835250505050612003565b505050565b60008151905060006a636f6e736f6c652e6c6f679050602083016000808483855afa5050505050565b505050565b60006120528473ffffffffffffffffffffffffffffffffffffffff16612223565b156121bb578373ffffffffffffffffffffffffffffffffffffffff1663150b7a0261207b611609565b8786866040518563ffffffff1660e01b815260040161209d94939291906133de565b602060405180830381600087803b1580156120b757600080fd5b505af19250505080156120e857506040513d601f19601f820116820180604052508101906120e59190612748565b60015b61216b573d8060008114612118576040519150601f19603f3d011682016040523d82523d6000602084013e61211d565b606091505b50600081511415612163576040517f08c379a000000000000000000000000000000000000000000000000000000000815260040161215a906134ce565b60405180910390fd5b805181602001fd5b63150b7a0260e01b7bffffffffffffffffffffffffffffffffffffffffffffffffffffffff1916817bffffffffffffffffffffffffffffffffffffffffffffffffffffffff1916149150506121c0565b600190505b949350505050565b6121d28383612236565b6121df6000848484612031565b61221e576040517f08c379a0000000000000000000000000000000000000000000000000000000008152600401612215906134ce565b60405180910390fd5b505050565b600080823b905060008111915050919050565b600073ffffffffffffffffffffffffffffffffffffffff168273ffffffffffffffffffffffffffffffffffffffff1614156122a6576040517f08c379a000000000000000000000000000000000000000000000000000000000815260040161229d9061360e565b60405180910390fd5b6122af8161159d565b156122ef576040517f08c379a00000000000000000000000000000000000000000000000000000000081526004016122e6906134ee565b60405180910390fd5b6122fb6000838361202c565b6001600360008473ffffffffffffffffffffffffffffffffffffffff1673ffffffffffffffffffffffffffffffffffffffff168152602001908152602001600020600082825461234b91906137c2565b92505081905550816002600083815260200190815260200160002060006101000a81548173ffffffffffffffffffffffffffffffffffffffff021916908373ffffffffffffffffffffffffffffffffffffffff160217905550808273ffffffffffffffffffffffffffffffffffffffff16600073ffffffffffffffffffffffffffffffffffffffff167fddf252ad1be2c89b69c2b068fc378daa952ba7f163c4a11628f55a4df523b3ef60405160405180910390a45050565b8280546124109061398d565b90600052602060002090601f0160209004810192826124325760008555612479565b82601f1061244b57805160ff1916838001178555612479565b82800160010185558215612479579182015b8281111561247857825182559160200191906001019061245d565b5b509050612486919061248a565b5090565b5b808211156124a357600081600090555060010161248b565b5090565b60006124ba6124b58461373a565b613709565b9050828152602081018484840111156124d257600080fd5b6124dd84828561394b565b509392505050565b6000813590506124f481613b06565b92915050565b60008135905061250981613b1d565b92915050565b60008135905061251e81613b34565b92915050565b60008151905061253381613b34565b92915050565b600082601f83011261254a57600080fd5b813561255a8482602086016124a7565b91505092915050565b60008135905061257281613b4b565b92915050565b60006020828403121561258a57600080fd5b6000612598848285016124e5565b91505092915050565b600080604083850312156125b457600080fd5b60006125c2858286016124e5565b92505060206125d3858286016124e5565b9150509250929050565b6000806000606084860312156125f257600080fd5b6000612600868287016124e5565b9350506020612611868287016124e5565b925050604061262286828701612563565b9150509250925092565b6000806000806080858703121561264257600080fd5b6000612650878288016124e5565b9450506020612661878288016124e5565b935050604061267287828801612563565b925050606085013567ffffffffffffffff81111561268f57600080fd5b61269b87828801612539565b91505092959194509250565b600080604083850312156126ba57600080fd5b60006126c8858286016124e5565b92505060206126d9858286016124fa565b9150509250929050565b600080604083850312156126f657600080fd5b6000612704858286016124e5565b925050602061271585828601612563565b9150509250929050565b60006020828403121561273157600080fd5b600061273f8482850161250f565b91505092915050565b60006020828403121561275a57600080fd5b600061276884828501612524565b91505092915050565b60006020828403121561278357600080fd5b600061279184828501612563565b91505092915050565b6127a3816138d7565b82525050565b6127b2816138e9565b82525050565b60006127c38261377f565b6127cd8185613795565b93506127dd81856020860161395a565b6127e681613af5565b840191505092915050565b60006127fc8261378a565b61280681856137a6565b935061281681856020860161395a565b61281f81613af5565b840191505092915050565b60006128358261378a565b61283f81856137b7565b935061284f81856020860161395a565b80840191505092915050565b600081546128688161398d565b61287281866137b7565b9450600182166000811461288d576001811461289e576128d1565b60ff198316865281860193506128d1565b6128a78561376a565b60005b838110156128c9578154818901526001820191506020810190506128aa565b838801955050505b50505092915050565b60006128e76032836137a6565b91507f4552433732313a207472616e7366657220746f206e6f6e20455243373231526560008301527f63656976657220696d706c656d656e74657200000000000000000000000000006020830152604082019050919050565b600061294d601c836137a6565b91507f4552433732313a20746f6b656e20616c7265616479206d696e746564000000006000830152602082019050919050565b600061298d600a836137b7565b91507f54484952445f574f5244000000000000000000000000000000000000000000006000830152600a82019050919050565b60006129cd6024836137a6565b91507f4552433732313a207472616e7366657220746f20746865207a65726f2061646460008301527f72657373000000000000000000000000000000000000000000000000000000006020830152604082019050919050565b6000612a336019836137a6565b91507f4552433732313a20617070726f766520746f2063616c6c6572000000000000006000830152602082019050919050565b6000612a736063836137b7565b91507f222c20226465736372697074696f6e223a20224120686967686c79206163636c60008301527f61696d656420636f6c6c656374696f6e206f6620737175617265732e222c202260208301527f696d616765223a2022646174613a696d6167652f7376672b786d6c3b6261736560408301527f36342c00000000000000000000000000000000000000000000000000000000006060830152606382019050919050565b6000612b25600b836137b7565b91507f5345434f4e445f574f52440000000000000000000000000000000000000000006000830152600b82019050919050565b6000612b65602c836137a6565b91507f4552433732313a206f70657261746f7220717565727920666f72206e6f6e657860008301527f697374656e7420746f6b656e00000000000000000000000000000000000000006020830152604082019050919050565b6000612bcb600d836137b7565b91507f3c2f746578743e3c2f7376673e000000000000000000000000000000000000006000830152600d82019050919050565b6000612c0b6001836137b7565b91507f20000000000000000000000000000000000000000000000000000000000000006000830152600182019050919050565b6000612c4b6038836137a6565b91507f4552433732313a20617070726f76652063616c6c6572206973206e6f74206f7760008301527f6e6572206e6f7220617070726f76656420666f7220616c6c00000000000000006020830152604082019050919050565b6000612cb1602a836137a6565b91507f4552433732313a2062616c616e636520717565727920666f7220746865207a6560008301527f726f2061646472657373000000000000000000000000000000000000000000006020830152604082019050919050565b6000612d176029836137a6565b91507f4552433732313a206f776e657220717565727920666f72206e6f6e657869737460008301527f656e7420746f6b656e00000000000000000000000000000000000000000000006020830152604082019050919050565b6000612d7d602e836137a6565b91507f45524337323155524953746f726167653a2055524920736574206f66206e6f6e60008301527f6578697374656e7420746f6b656e0000000000000000000000000000000000006020830152604082019050919050565b6000612de36002836137b7565b91507f227d0000000000000000000000000000000000000000000000000000000000006000830152600282019050919050565b6000612e236013836137a6565b91507f4d696e74206c696d6974207265616368656421000000000000000000000000006000830152602082019050919050565b6000612e636020836137a6565b91507f4552433732313a206d696e7420746f20746865207a65726f20616464726573736000830152602082019050919050565b6000612ea36031836137a6565b91507f45524337323155524953746f726167653a2055524920717565727920666f722060008301527f6e6f6e6578697374656e7420746f6b656e0000000000000000000000000000006020830152604082019050919050565b6000612f09602c836137a6565b91507f4552433732313a20617070726f76656420717565727920666f72206e6f6e657860008301527f697374656e7420746f6b656e00000000000000000000000000000000000000006020830152604082019050919050565b6000612f6f6029836137a6565b91507f4552433732313a207472616e73666572206f6620746f6b656e2074686174206960008301527f73206e6f74206f776e00000000000000000000000000000000000000000000006020830152604082019050919050565b6000612fd5602f836137a6565b91507f4552433732314d657461646174613a2055524920717565727920666f72206e6f60008301527f6e6578697374656e7420746f6b656e00000000000000000000000000000000006020830152604082019050919050565b600061303b600a836137b7565b91507f7b226e616d65223a2022000000000000000000000000000000000000000000006000830152600a82019050919050565b600061307b6021836137a6565b91507f4552433732313a20617070726f76616c20746f2063757272656e74206f776e6560008301527f72000000000000000000000000000000000000000000000000000000000000006020830152604082019050919050565b60006130e1600a836137b7565b91507f46495253545f574f5244000000000000000000000000000000000000000000006000830152600a82019050919050565b6000613121601d836137b7565b91507f646174613a6170706c69636174696f6e2f6a736f6e3b6261736536342c0000006000830152601d82019050919050565b60006131616031836137a6565b91507f4552433732313a207472616e736665722063616c6c6572206973206e6f74206f60008301527f776e6572206e6f7220617070726f7665640000000000000000000000000000006020830152604082019050919050565b60006131c76005836137b7565b91507f434f4c4f520000000000000000000000000000000000000000000000000000006000830152600582019050919050565b61320381613941565b82525050565b6000613215828461282a565b915081905092915050565b600061322c828561282a565b9150613238828461282a565b91508190509392505050565b6000613250828661282a565b915061325b82612bfe565b9150613267828561282a565b915061327282612bfe565b915061327e828461282a565b9150819050949350505050565b6000613297828761285b565b91506132a3828661282a565b91506132af828561285b565b91506132bb828461282a565b91506132c682612bbe565b915081905095945050505050565b60006132df82612980565b91506132eb828461282a565b915081905092915050565b600061330182612b18565b915061330d828461282a565b915081905092915050565b60006133238261302e565b915061332f828561282a565b915061333a82612a66565b9150613346828461282a565b915061335182612dd6565b91508190509392505050565b6000613368826130d4565b9150613374828461282a565b915081905092915050565b600061338a82613114565b9150613396828461282a565b915081905092915050565b60006133ac826131ba565b91506133b8828461282a565b915081905092915050565b60006020820190506133d8600083018461279a565b92915050565b60006080820190506133f3600083018761279a565b613400602083018661279a565b61340d60408301856131fa565b818103606083015261341f81846127b8565b905095945050505050565b600060408201905061343f600083018561279a565b61344c60208301846131fa565b9392505050565b600060208201905061346860008301846127a9565b92915050565b6000602082019050818103600083015261348881846127f1565b905092915050565b600060608201905081810360008301526134aa81866127f1565b90506134b960208301856131fa565b6134c6604083018461279a565b949350505050565b600060208201905081810360008301526134e7816128da565b9050919050565b6000602082019050818103600083015261350781612940565b9050919050565b60006020820190508181036000830152613527816129c0565b9050919050565b6000602082019050818103600083015261354781612a26565b9050919050565b6000602082019050818103600083015261356781612b58565b9050919050565b6000602082019050818103600083015261358781612c3e565b9050919050565b600060208201905081810360008301526135a781612ca4565b9050919050565b600060208201905081810360008301526135c781612d0a565b9050919050565b600060208201905081810360008301526135e781612d70565b9050919050565b6000602082019050818103600083015261360781612e16565b9050919050565b6000602082019050818103600083015261362781612e56565b9050919050565b6000602082019050818103600083015261364781612e96565b9050919050565b6000602082019050818103600083015261366781612efc565b9050919050565b6000602082019050818103600083015261368781612f62565b9050919050565b600060208201905081810360008301526136a781612fc8565b9050919050565b600060208201905081810360008301526136c78161306e565b9050919050565b600060208201905081810360008301526136e781613154565b9050919050565b600060208201905061370360008301846131fa565b92915050565b6000604051905081810181811067ffffffffffffffff821117156137305761372f613ac6565b5b8060405250919050565b600067ffffffffffffffff82111561375557613754613ac6565b5b601f19601f8301169050602081019050919050565b60008190508160005260206000209050919050565b600081519050919050565b600081519050919050565b600082825260208201905092915050565b600082825260208201905092915050565b600081905092915050565b60006137cd82613941565b91506137d883613941565b9250827fffffffffffffffffffffffffffffffffffffffffffffffffffffffffffffffff0382111561380d5761380c613a39565b5b828201905092915050565b600061382382613941565b915061382e83613941565b92508261383e5761383d613a68565b5b828204905092915050565b600061385482613941565b915061385f83613941565b9250817fffffffffffffffffffffffffffffffffffffffffffffffffffffffffffffffff048311821515161561389857613897613a39565b5b828202905092915050565b60006138ae82613941565b91506138b983613941565b9250828210156138cc576138cb613a39565b5b828203905092915050565b60006138e282613921565b9050919050565b60008115159050919050565b60007fffffffff0000000000000000000000000000000000000000000000000000000082169050919050565b600073ffffffffffffffffffffffffffffffffffffffff82169050919050565b6000819050919050565b82818337600083830152505050565b60005b8381101561397857808201518184015260208101905061395d565b83811115613987576000848401525b50505050565b600060028204905060018216806139a557607f821691505b602082108114156139b9576139b8613a97565b5b50919050565b60006139ca82613941565b91507fffffffffffffffffffffffffffffffffffffffffffffffffffffffffffffffff8214156139fd576139fc613a39565b5b600182019050919050565b6000613a1382613941565b9150613a1e83613941565b925082613a2e57613a2d613a68565b5b828206905092915050565b7f4e487b7100000000000000000000000000000000000000000000000000000000600052601160045260246000fd5b7f4e487b7100000000000000000000000000000000000000000000000000000000600052601260045260246000fd5b7f4e487b7100000000000000000000000000000000000000000000000000000000600052602260045260246000fd5b7f4e487b7100000000000000000000000000000000000000000000000000000000600052604160045260246000fd5b6000601f19601f8301169050919050565b613b0f816138d7565b8114613b1a57600080fd5b50565b613b26816138e9565b8114613b3157600080fd5b50565b613b3d816138f5565b8114613b4857600080fd5b50565b613b5481613941565b8114613b5f57600080fd5b5056fe416e204e465420772f20494420257320686173206265656e206d696e74656420746f2025734142434445464748494a4b4c4d4e4f505152535455565758595a6162636465666768696a6b6c6d6e6f707172737475767778797a303132333435363738392b2fa2646970667358221220b7d51188ad38d9d1fe7e75c1c794efba8437505cd2d236841b582f0375017d3264736f6c634300080000333c73766720786d6c6e733d27687474703a2f2f7777772e77332e6f72672f323030302f73766727207072657365727665417370656374526174696f3d27784d696e594d696e206d656574272076696577426f783d273020302033353020333530273e3c7374796c653e2e62617365207b2066696c6c3a2077686974653b20666f6e742d66616d696c793a2073657269663b20666f6e742d73697a653a20323470783b207d3c2f7374796c653e3c726563742077696474683d273130302527206865696768743d2731303025272066696c6c3d27272f3e3c7465787420783d273530252720793d273530252720636c6173733d27626173652720646f6d696e616e742d626173656c696e653d276d6964646c652720746578742d616e63686f723d276d6964646c65273e",
  "linkReferences": {},
  "deployedLinkReferences": {}
}